:020000040000fa
:10000000f07f0020410a0000b90b0000bb0b00008c
:1000100000000000000000000000000000000000e0
:10002000000000000000000000000000bf0b000006
:100030000000000000000000bf0b0000bf0b00002c
:10004000bf0b0000bf0b0000bf0b0000bf0b000088
:10005000bf0b0000bf0b0000bf0b0000bf0b000078
:10006000bf0b0000f5040000bf0b0000bf0b000039
:10007000bf0b0000bf0b0000bf0b0000bf0b000058
:10008000bf0b0000bf0b0000bf0b0000bf0b000048
:10009000bf0b00000000000000000000bf0b0000cc
:1000a000bf0b0000bf0b0000bf0b0000bf0b000028
:020000040000fa
:1000b000f8b5c046f8bc08bc9e467047210a00004f
:1000c000f8b5c046f8bc08bc9e467047f909000068
:020000040000fa
:1000d000500000201c000000000000006c00002008
:1000e0000c00000000000000800000200100000063
:1000f000000000008100002001000000000000005e
:1001000082000020010000000000000083000020a9
:100110000100000000000000840000200100000039
:100120000000000085000020010000000000000029
:100130008600002001000000000000008700002071
:100140000100000000000000880000200100000005
:1001500000000000890000200100000000000000f5
:100160008a00002001000000000000008b00002039
:1001700001000000000000008c00002001000000d1
:10018000000000008d0000200100000000000000c1
:100190008e00002001000000000000008f00002001
:1001a000010000000000000090000020010000009d
:1001b000000000009100002001000000000000008d
:1001c00092000020010000000000000093000020c9
:1001d0000100000000000000940000200100000069
:1001e0000000000095000020010000000000000059
:1001f0007800002004000000000000000000002043
:1002000050000000000000007c00002004000000fe
:1002100000000000000000000000000044444444ce
:020000040000fa
:100220008603000092030000e6030000e6030000de
:10023000e6030000e6030000e6030000e60300001a
:10024000e6030000e6030000e6030000e60300000a
:10025000e6030000e6030000e6030000e6030000fa
:100260009c030000a8030000e6030000e603000072
:10027000e6030000e6030000e6030000e6030000da
:10028000e6030000e6030000e6030000e6030000ca
:10029000e6030000e6030000e6030000e6030000ba
:1002a000b2030000be030000e6030000e603000006
:1002b000e6030000e6030000e6030000e60300009a
:1002c000e6030000e6030000e6030000e60300008a
:1002d000e6030000e6030000e6030000e60300007a
:1002e000c8030000d4030000e6030000e60300009a
:1002f000e6030000e6030000e6030000e60300005a
:10030000e6030000e6030000e6030000e603000049
:10031000e6030000e6030000e6030000e603000039
:10032000de030000e6030000e6030000e603000031
:10033000e6030000e6030000e6030000e603000019
:10034000e6030000e6030000e6030000e603000009
:10035000e6030000e6030000e6030000e6030000f9
:04036000fa0300009c
:020000040000fa
:1003640010b5022803d0032853d0012010bd00f09b
:10037400e1fb2b4b1870502833d88000294b1b58b5
:100384009f460023284a1370284a1370ede7264b32
:100394001a78264b1a70e8e70023254a1370234a7b
:1003a4001370e2e7224b1a78204b1a70dde7002322
:1003b400204a13701d4a1370d7e71e4b1a781b4b43
:1003c4001a70d2e700231c4a1370184a1370cce742
:1003d400194b1a78154b1a70c7e700f06bfb134bd7
:1003e40018700f4b1b781a09082abed17f201840b9
:1003f40000f0d8fab9e700f045fb0c4b1870002365
:100404000e4a13700e4a13700e4a13700e4a13707c
:10041400abe7064c207800f099fb00232370a4e797
:100424009400002020020000840000209500002099
:10043400890000208e00002093000020820000200c
:0c044400870000208c00002091000020a8
:020000040000fa
:1004500010b5264b0f221a60254a1a61002140224e
:1004600099540132995401329954013299543d3ac8
:1004700044201a5401301a5401301a5401301a54cd
:10048000463848241855013418554d301a54013057
:100490001a5401301a5401301a5401301a540130e0
:1004a0001a5401301a5401301a5401301a540130d0
:1004b0001a5401301a5401301a542a329954013214
:1004c0009954013299540132995401323738985471
:1004d000033299540132995401329954013299549a
:1004e000013299540132995410bdc0460044004174
:0404f00000806d0318
:020000040000fa
:1004f40070b5244b1c7ee4b29b7d23421fd063b2b3
:100504000025002b1edba30709d51f4a0123137006
:1005140093701c4b5b8bdb06db0f53700125630769
:100524001cd4e30703d5184b00221a700425164b7c
:100534005b68002b03d0144a916828009847114b3c
:100544001c7670bd104b5b68002b05d00e4a916879
:10055400052098470535d6e70525d4e700f00afbc2
:10056400002801d10225dce700f00cfb002803d0b1
:10057400054b9b78002bd4d0034b00229a700325a3
:0c058400cfe7c046000800426c000020d9
:020000040000fa
:100590001b4b00229a619a8c80218a439a841a000c
:1005a0001023d1680b42fcd0164b1b689b0e3f2bcf
:1005b00023d09b02802292001343114a936210239e
:1005c000d1680b42fcd00e4b02229a841a001023f1
:1005d000d1680b42fcd00c4b0c4a5a601a0053787d
:1005e0005bb2002bfbdb084b094a5a80094b0a4ad5
:1005f0001a62034b00221a627047203bd9e7c046bb
:100600000008004024608000000c0040000701004a
:0c06100014400000000400400400010041
:020000040000fa
:10061c0010b5002000f078fa15490a6a120e012371
:10062c001a40144802700a6a920d1a40124802705d
:10063c000a6ad20c1a40114802700a6a120c134052
:10064c000f4a137000230f4a13700f4a13700f4a8e
:10065c0013700f4a137000210e4800f09dfa00f041
:10066c007bfa00f01bf80c4b013b002bfcd1f6e79e
:10067c000044004183000020880000208d000020f1
:10068c009200002082000020870000208c000020b7
:0c069c009100002065030000881300009e
:020000040000fa
:1006a800164b1b6a1b0206d5154b1b78002b02d173
:1006b800134b01221a70114b1b6adb0206d5114b32
:1006c8001b78002b02d10f4b01221a700b4b1b6aaf
:1006d8009b0306d50c4b1b78002b02d10a4b012239
:1006e8001a70064b1b6a5b0406d5084b1b78002b57
:1006f80002d1064b01221a707047c04600440041df
:1007080082000020870000208c000020910000203b
:020000040000fa
:100718000021f0b5174b184a934208d30027174a0f
:1007280013685168002b05d1002903d1f0bd197059
:100738000133f1e7100095680c305c18002d16d0d5
:100748000b25ed1a5219a3420ad10b0003221340bc
:100758005a1e934189085918890040180200dfe79a
:100768005d1cae5c1e702b00ede71f700133a342c9
:10077800fbd1f3e70000002000000020d0000000bb
:020000040000fa
:10078800114b1b6adb01db0f104a1370104a1278f9
:100798009a420ed00c4a126a9201d20f0d490a7081
:1007a800934209d00c4a1278002a02d0013a0a4929
:1007b8000a70074a13707047074a1278ff2af8d060
:1007c800013205490a70f4e7004400418000002026
:0c07d8008300002081000020840000202d
:020000040000fa
:1007e400114b1b6a5b02db0f104a1370104a12781c
:1007f4009a420ed00c4a126a9202d20f0d490a7024
:10080400934209d00c4a1278ff2a02d001320a49d5
:100814000a70074a13707047074a1278002af8d002
:10082400013a05490a70f4e70044004185000020bc
:0c083400880000208600002089000020c1
:020000040000fa
:10084000114b1b6a1b03db0f104a1370104a1278fe
:100850009a420ed00c4a126a5203d20f0d490a7006
:10086000934209d00c4a1278ff2a02d001320a4979
:100870000a70074a13707047074a1278002af8d0a6
:10088000013a05490a70f4e7004400418a0000205b
:0c0890008d0000208b0000208e00002056
:020000040000fa
:10089c00114b1b6adb03db0f104a1370104a1278e2
:1008ac009a420ed00c4a126a1204d20f0d490a70e9
:1008bc00934209d00c4a1278ff2a02d001320a491d
:1008cc000a70074a13707047074a1278002af8d04a
:1008dc00013a05490a70f4e7004400418f000020fa
:0c08ec00920000209000002093000020eb
:020000040000fa
:1008f80000230e4a10b513600d4a13600d4a1360a9
:100908000d4a13600d4a13600d4a53621361013397
:10091800936000f051f900f04ff90a4c0a4b9c42e1
:1009280000d310bd08cc9847f8e7c0467c000020eb
:100938000c00002008000020000000200400002017
:0c09480010000020bc000000c0000000f7
:020000040000fa
:10095400124b01221a601a00d369002bfcd10f4bf1
:100964000f4a1a601a00d369002bfcd10b4b2c22be
:100974005a625968d4320a435a601a00d369002b68
:10098400fcd1064b87229a751a6802210a431a6021
:100994001a00d369002bfcd17047c04600080042fe
:0409a400100030000f
:020000040000fa
:1009a800030712d5114b08229a61430711d50f4b43
:1009b80004229a61830710d50c4b02229a61c3075f
:1009c8000fd50a4b01229a617047084b08225a61d9
:1009d800ebe7064b04225a61ece7044b02225a610a
:1009e800ede7024b01225a61eee7c04600440041a0
:020000040000fa
:1009f80010b5064c2378002b07d1054b002b02d0ed
:100a0800044800e000bf0123237010bd50000020ff
:100a18000000000000000000044b10b5002b03d0bc
:100a28000349044800e000bf10bdc04600000000b4
:080a3800540000200000000042
:020000040000fa
:100a400010b50a4b98470a4b984700f0b1f8094b8c
:100a5000ff229343084a9360084b9847084b9847f6
:100a6000084b9847fff7dafdfee7c046bd0b0000d4
:100a7000bd0b00000000000000ed00e0f9080000e0
:080a8000bd0b0000bd0b0000de
:020000040000fa
:100a8800074b1878c000074b1b789b001843064b90
:100a98001b781843054b1b785b001843c0b270479e
:100aa800910000208c000020820000208700002098
:020000040000fa
:100ab80010b50a4a106a116a136a126a40080824b3
:100ac8002040c908043c214008431206d20f1043b5
:100ad8005b0902221340184310bdc0460044004180
:020000040000fa
:100ae800bff35f8f62b6074bc22080001a580649d1
:100af8001140c02212020a431a50802292001a6042
:0c0b08007047c04600e100e0ff00ffff66
:020000040000fa
:100b140010b5074b06225a60fff798fcfff736fd25
:100b240000f038f8fff714fffff7dcff10bdc046f4
:040b3400004000413c
:020000040000fa
:100b3800044ad369002bfcd1024a2833d05cc0b2e6
:080b48007047c046000800429e
:020000040000fa
:100b5000034a2823d054d369002bfcd17047c046e8
:040b60000008004247
:020000040000fa
:100b640010b5fff70ffefff73bfefff767fefff739
:040b740093fe10bd1f
:020000040000fa
:100b7800024b588b0007c00f7047c0460008004260
:020000040000fa
:100b8800024b588b4007c00f7047c0460008004210
:020000040000fa
:0c0b9800014b82225a607047004000416f
:020000040000fa
:0c0ba400014b5860996070476c00002005
:020000040000fa
:080bb00010b5fff7b1fd10bd07
:020000040000fa
:020bb800fee756
:020000040000fa
:020bba00fee754
:020000040000fa
:020bbc00704780
:020000040000fa
:020bbe00fee750
:020000040000fa
:020bc00070477c
:020000040000fa
:0200000400807a
:0440000077c700d8a6
:020000040000fa
:0200000400807a
:044004005c00ffff5e
:00000001FF
