:020000040000fa
:10000000f07f0020310500003d0600003f060000a3
:1000100000000000000000000000000000000000e0
:100020000000000000000000000000004306000087
:10003000000000000000000043060000430600002e
:10004000430600004306000043060000430600008c
:10005000430600004306000043060000430600007c
:1000600043060000d10000004306000043060000e4
:10007000430600004306000043060000430600005c
:10008000430600004306000043060000430600004c
:1000900043060000000000000000000043060000ce
:1000a000430600004306000043060000430600002c
:020000040000fa
:1000b000f8b5c046f8bc08bc9e4670471105000064
:1000c000f8b5c046f8bc08bc9e467047e90400007d
:020000040000fa
:1000d00070b5364b1c7ee4b29b7d23423ad0a30719
:1000e00013d5334a012313709370304b5b8bdb06bf
:1000f000db0f53705368002b1ad09168012098478a
:10010000002828d0002000f065f9630710d5284b9f
:100110005d68002d0cd000f077fa002823d1244b25
:1001200099680230a847002819d0002000f052f941
:10013000e3070cd51e4b00221a705b68002b03d01e
:100140001b4a916804209847184b01221a7664b222
:10015000002c1edb70bd012000f03cf9d5e701202a
:1001600000f038f9e4e700f057fa002803d0104b0c
:100170009b78002b09d00e4eb1680320a8470023be
:10018000b370022000f026f9d2e7032000f022f934
:10019000cee7074b5b68002b03d0054a916805202a
:1001a0009847024b80221a76d4e7c04600080042e6
:0401b0006c000020bf
:020000040000fa
:1001b40010b5264b0f221a60254a1a6100214022ed
:1001c40099540132995401329954013299543d3a67
:1001d40044201a5401301a5401301a5401301a546c
:1001e400463848241855013418554d301a540130f6
:1001f4001a5401301a5401301a5401301a5401307f
:100204001a5401301a5401301a5401301a5401306e
:100214001a5401301a5401301a542a3299540132b2
:10022400995401329954013299540132373898540f
:100234000332995401329954013299540132995438
:10024400013299540132995410bdc0460044004112
:0402540000806d03b6
:020000040000fa
:100258001b4b00229a619a8c80218a439a841a0047
:100268001023d1680b42fcd0164b1b689b0e3f2b0a
:1002780023d09b02802292001343114a93621023d9
:10028800d1680b42fcd00e4b02229a841a0010232c
:10029800d1680b42fcd00c4b0c4a5a601a005378b8
:1002a8005bb2002bfbdb084b094a5a80094b0a4a10
:1002b8001a62034b00221a627047203bd9e7c046f6
:1002c8000008004024608000000c00400007010086
:0c02d8001440000000040040040001007d
:020000040000fa
:1002e400500000201c000000000000006c000020f2
:1002f4000c0000000000000080000020010000004d
:100304000000000081000020010000000000000047
:100314008200002001000000000000008300002093
:10032400010000000000000078000020040000002c
:100334000000000000000020500000000000000049
:100344007c00002004000000000000000000000009
:100354000000000044444444444444444444444469
:020000040000fa
:100364000021f0b5174b184a934208d30027174ac7
:1003740013685168002b05d1002903d1f0bd197011
:100384000133f1e7100095680c305c18002d16d08d
:100394000b25ed1a5219a3420ad10b000322134074
:1003a4005a1e934189085918890040180200dfe752
:1003b4005d1cae5c1e702b00ede71f700133a34281
:1003c400fbd1f3e70000002000000020e40200005d
:020000040000fa
:1003d400002808d112494b68124a1a40c0239b02d4
:1003e40013434b60704701280cd0022811d0032816
:1003f400f8d10b494b680c4a1a4080239b021343e3
:100404004b60efe7064a5168e023db020b4353607d
:10041400e8e7034a5168c0239b020b435360e1e7ba
:0c04240000080042fffff8fffffffcff94
:020000040000fa
:1004300010b5002000f0d6f80f4b196a090e012202
:1004400011400e480170196a890d11400c48017065
:10045000196ac90c11400b480170196a090c0a404d
:1004600009490a7001229a6101329a6102329a6145
:1004700004329a61012010bd004400418000002038
:0c0480008100002082000020830000208a
:020000040000fa
:10048c0000230e4a10b513600d4a13600d4a136019
:10049c000d4a13600d4a13600d4a53621361013308
:1004ac00936000f0c9f800f0c7f80a4c0a4b9c4264
:1004bc0000d310bd08cc9847f8e7c0467c0000205c
:1004cc000c00002008000020000000200400002088
:0c04dc0010000020bc000000c000000068
:020000040000fa
:1004e80010b5064c2378002b07d1054b002b02d002
:1004f800044800e000bf0123237010bd5000002015
:100508000000000000000000044b10b5002b03d0d1
:100518000349044800e000bf10bdc04600000000c9
:08052800540000200000000057
:020000040000fa
:1005300010b50a4b98470a4b984700f07bf8094bd7
:10054000ff229343084a9360084b9847084b98470b
:10055000084b9847fff76cfffee7c04641060000d6
:10056000410600000000000000ed00e08d040000e6
:080570004106000041060000f5
:020000040000fa
:100578000d4b01221a601a00d369002bfcd10a4bdb
:100588000a4a1a601a00d369002bfcd1064ba8222c
:100598005a62213a9a751a6802210a431a601a00a7
:1005a800d369002bfcd170470008004210001000ee
:020000040000fa
:1005b800bff35f8f62b6074bc22080001a58064906
:1005c8001140c02212020a431a50802292001a6077
:0c05d8007047c04600e100e0ff00ffff9c
:020000040000fa
:1005e40010b5074b06225a60fff7e2fdfff732fe13
:1005f40000f018f8fff7befffff7dcff10bdc046a0
:040604000040004171
:020000040000fa
:10060800024b588b0007c00f7047c04600080042d5
:020000040000fa
:10061800024b588b4007c00f7047c0460008004285
:020000040000fa
:0c062800014b82225a60704700400041e4
:020000040000fa
:0806340010b5fff795fe10bda3
:020000040000fa
:02063c00fee7d7
:020000040000fa
:02063e00fee7d5
:020000040000fa
:02064000704701
:020000040000fa
:02064200fee7d1
:020000040000fa
:020644007047fd
:020000040000fa
:0200000400807a
:0440000077c700d8a6
:020000040000fa
:0200000400807a
:044004005c00ffff5e
:00000001FF
